:0C0977000A083F065B4F666D7D077F6F2E
:08094900F8E6F5A07F0A7E002C
:10095100E4FDFCC3ED9FEE6480F8EC6480985015D3
:10096100E4FBFA0BBB00010AEB64704A70F50DBDA4
:0509710000010C80DE16
:01097600225E
:10091700751300751448D291C291AE13AF147C00C1
:100927007D0A12088C74082F120949C291D291AE20
:1009370013AF147C007D0A12088C74082D12094924
:0209470080D45A
:03000000020800F3
:0C080000787FE4F6D8FD758114020847EB
:10088C00C2D5EC30E709B2D5E4C39DFDE49CFCEE87
:10089C0030E715B2D5E4C39FFFE49EFE1208C2C335
:1008AC00E49DFDE49CFC80031208C230D507C3E430
:0608BC009FFFE49EFE22F6
:10080C00020917E493A3F8E493A34003F68001F2E2
:10081C0008DFF48029E493A3F85407240CC8C333ED
:10082C00C4540F4420C8834004F456800146F6DFBC
:10083C00E4800B0102040810204080900977E47ECC
:10084C00019360BCA3FF543F30E509541FFEE493B1
:10085C00A360010ECF54C025E060A840B8E493A378
:10086C00FAE493A3F8E493A3C8C582C8CAC583CAA3
:10087C00F0A3C8C582C8CAC583CADFE9DEE780BE5B
:010983000073
:1008C200BC000BBE0029EF8DF084FFADF022E4CC1A
:1008D200F875F008EF2FFFEE33FEEC33FCEE9DECE3
:1008E200984005FCEE9DFE0FD5F0E9E4CEFD22ED29
:1008F200F8F5F0EE8420D21CFEADF075F008EF2F73
:10090200FFED33FD4007985006D5F0F222C398FD63
:050912000FD5F0EA2200
:00000001FF
