:030D7C00256400EB
:040D7700020800006E
:100CE300E4FDFCC3ED9FEE6480F8EC64809850153E
:100CF300E4FBFA0BBB00010AEB64704A70F50DBD0F
:050D030000010C80DE80
:010D080022C8
:100D2E007F38120D5B7F0E120D5B7F01120D5B7F04
:0E0D3E0006120D5B7F0C120D5B7F80020D5BB9
:0E0D5B008FA0C290C291D292120D4CC2922271
:0E0D69008FA0D290C291D292120D4CC2922253
:100D09008B2B8A2C892DAB2BAA2CA92D120B5C605D
:100D190013052DE52D7002052C14F9120B5CFF1239
:050D29000D6980E222CB
:0E0D4C00E4FFFE0FBF00010EBE17F8BF71F5E9
:010D5A002276
:100C7600120D2E20B23CD2950509E5097002050831
:100C86007F8D120D5B752EFF752F0D75307C8508D7
:100C9600318509327B007A00792612085C7B007A5E
:100CA600007926120D0930B2FD7F147E00120CE386
:060CB60080C1C29580BD63
:03000000020BEA06
:0C0BEA00787FE4F6D8FD75813E020C31E6
:100B5C00BB010689828A83E0225002E722BBFE0297
:090B6C00E32289828A83E49322CA
:10080000E53A242EF8E6053A22782B300702782EB6
:10081000E475F001120BB4020B5C2000EB7F2ED2CA
:10082000008018EF540F2490D43440D4FF30040BD0
:10083000EF24BFB41A0050032461FFE53B600215AA
:100840003B053EE53E7002053D30070D782BE47513
:10085000F001120BB4EF020BA2020CBC7403D2071E
:100860008003E4C207F53A8B2B8A2C892DE4F53BF3
:10087000F53DF53EE53B60077F2012083B80F575AE
:100880003CFFC201C200C202C203C205C206C208C6
:10089000120809FF700D3007057F0012084CAF3EAB
:1008A000AE3D22B4255FC2D5C204120809FF24D090
:1008B000B40A00501A75F00A783B30D50508B6FF27
:1008C0000106C6A426F620D5047002D20380D924DE
:1008D000CFB41A00EF5004C2E5D204020A4CD20190
:1008E00080C6D20080C0D20280BCD2D580BAD205E8
:1008F00080B47F2012083B2002077401B53B004002
:10090000F1120800FF12083B020874D208D20680D8
:1009100095120800FB120800FA120800F94A4B7001
:1009200006791D7A0B7BFF20022EE53B602A7E00B4
:100930008E82758300120B7560060EEE653C70F0BA
:10094000C2D5EBC0E0EAC0E0E9C0E0EE120A93D005
:10095000E0F9D0E0FAD0E0FB120B5CFF60AAEBC03C
:10096000E0EAC0E0E9C0E012083BD0E02401F9D0A1
:10097000E03400FAD0E0FBE53C0460DCD53CD980F3
:10098000877BFF7A0A798FD202809C791080027966
:1009900008C206C2088008D2D5790A8004790AC242
:1009A000D5E53C047002F53CE4FAFDFEFF120800B8
:1009B000FC7B08200113120800FD7B1030000A1296
:1009C0000800FE120800FF7B20EC3382D592D55040
:1009D00013C3E43000069FFFE49EFEE42001039D64
:1009E000FDE49CFCE4CBF8C201EC700CCFCECDCC86
:1009F000E824F8F870F38017C3EF33FFEE33FEED11
:100A000033FDEC33FCEB33FB994002FB0FD8E9EBF1
:100A1000300105F8D0E0C448B201C0E00AEC4D4E08
:100A20004F78207B0070C2EAB53C0040BCC0E012A9
:100A30000A95D0F0D0E0200104C4C0E0C4B201C0E7
:100A4000F0120824D0F0D5F0EB020874120BC409A0
:100A50001153098B5808E24C08DE42098F4F099761
:0F0A60004409974908F743099D550981460981C3
:100A6F00450981470B3D5008E62D08EA2E090D2B4D
:100A7F0008EE23090B200B262A08A64800000905BB
:100A8F003F3F3F00790AA2D5200314300509B91062
:100A9F00020404B9080104A2D52006025001042063
:100AAF0002689202B53B005034C0E07F203003193A
:100ABF007F30A20272067205500F120AECC202C2F8
:100ACF0006C205C2087F30800F300503E9C0E0126F
:100ADF00083B300503D0E0F9D0E0B53BCC3005172B
:100AEF007F30B9100C12083B7F583004077F788095
:100AFF0003B9080312083B3002057F2D02083B7F24
:100B0F00202008F87F2B2006F322920280CF286E38
:100B1F00756C6C2900D2011208003001F8C20178FF
:100B2F003B30D50108F60208A62D5043495812084C
:100B3F00002403B405004001E4900B389312082CF5
:0D0B4F00743A12082CD203753B0402098B86
:100BF600020C76E493A3F8E493A34003F68001F293
:100C060008DFF48029E493A3F85407240CC8C333FF
:100C1600C4540F4420C8834004F456800146F6DFCE
:100C2600E4800B0102040810204080900D77E47EDA
:100C3600019360BCA3FF543F30E509541FFEE493C3
:100C4600A360010ECF54C025E060A840B8E493A38A
:100C5600FAE493A3F8E493A3C8C582C8CAC583CAB5
:100C6600F0A3C8C582C8CAC583CADFE9DEE780BE6D
:010D7B000077
:100B7500BB010CE58229F582E5833AF583E0225035
:100B850006E92582F8E622BBFE06E92582F8E2227F
:0D0B9500E58229F582E5833AF583E4932299
:100BA200BB010689828A83F0225002F722BBFE0132
:020BB200F3222C
:100BB400FAE6FB0808E6F925F0F618E6CA3AF62242
:100BC400D083D082F8E4937012740193700DA3A3C0
:100BD40093F8740193F5828883E4737402936860D4
:060BE400EFA3A3A380DFD4
:100CBC00EFB40A07740D120CC7740A309811A89976
:100CCC00B8130CC2983098FDA899C298B811F63098
:070CDC0099FDC299F5992270
:00000001FF
