:0508DA0045534D000034
:10080000E4FDFCC3ED9FEE6480F8EC648098501525
:10081000E4FBFA0BBB00010AEB64704A70F50DBDF6
:0508200000010C80DE68
:0108250022B0
:10086C007F381208B27F0E1208B27F011208B27FD5
:0E087C00061208B27F0C1208B27F800208B28A
:0E08B2008FA0C290C291D2921208A3C29222CD
:0E08C0008FA0D290C291D2921208A3C29222AF
:100826008B0C8A0D890EAB0CAA0DA90E12088A60D4
:1008360013050EE50E7002050D14F912088AFF1253
:0508460008C080E22261
:0E08A300E4FFFE0FBF00010EBE17F8BF71F597
:0108B1002224
:10084B0012086C7F181208B27BFF7A0879DA12084B
:10085B00267F161208B27BFF7A0879DE12082680F3
:01086B00E2AA
:030000000208CE25
:0C08CE00787FE4F6D8FD75810E02084B1F
:10088A00BB010689828A83E0225002E722BBFE026C
:09089A00E32289828A83E493229F
:00000001FF
