:0408E9000208000001
:1008B500E4FDFCC3ED9FEE6480F8EC648098501570
:1008C500E4FBFA0BBB00010AEB64704A70F50DBD41
:0508D50000010C80DEB3
:0108DA0022FB
:0708DB00D2AFD2A8D288229F
:030003000208E20E
:0708E20075080075090132E1
:10088C001208DBE50964014508700ED2957FB87E2D
:10089C000B1208B5E4F508F509D2957F647E0012B9
:0908AC0008B5C2951208B580DA06
:03000000020800F3
:0C080000787FE4F6D8FD758109020847F6
:10080C0002088CE493A3F8E493A34003F68001F26E
:10081C0008DFF48029E493A3F85407240CC8C333ED
:10082C00C4540F4420C8834004F456800146F6DFBC
:10083C00E4800B01020408102040809008E9E47E5B
:10084C00019360BCA3FF543F30E509541FFEE493B1
:10085C00A360010ECF54C025E060A840B8E493A378
:10086C00FAE493A3F8E493A3C8C582C8CAC583CAA3
:10087C00F0A3C8C582C8CAC583CADFE9DEE780BE5B
:0108ED00000A
:00000001FF
