:1008F3000D0A52656365697665643A200053656E37
:1009030064206120737472696E6720656E64696E1A
:0C09130067207769746820233A200A00EE
:0309830001080068
:10095D00758920758DFD759850D28ED2AFD2AC228F
:08097B008F993099FDC2992209
:10091F008B208A218922AB20AA21A92212094460A7
:10092F00130522E5227002052114F9120944FF1262
:05093F00097B80E222AB
:0300230002088C44
:10088C00C0E0C083C082C0D075D000C000C001C021
:07089C0002C003C006C00703
:1008A300AE99C298BE212374092508F876007BFF10
:1008B3007A0879F312091F7B007A00790912091F5C
:1008C3007F0A12097B7508008011E508C394135051
:0B08D3000AAF08050874092FF8A606FC
:1008DE00D007D006D003D002D001D000D0D0D08225
:0508EE00D083D0E032D0
:0E096D0012095D7BFF7A09790012091F80FED6
:03000000020800F3
:0C080000787FE4F6D8FD758122020847DD
:10094400BB010689828A83E0225002E722BBFE02B1
:09095400E32289828A83E49322E4
:10080C0002096DE493A3F8E493A34003F68001F28C
:10081C0008DFF48029E493A3F85407240CC8C333ED
:10082C00C4540F4420C8834004F456800146F6DFBC
:10083C00E4800B0102040810204080900983E47EC0
:10084C00019360BCA3FF543F30E509541FFEE493B1
:10085C00A360010ECF54C025E060A840B8E493A378
:10086C00FAE493A3F8E493A3C8C582C8CAC583CAA3
:10087C00F0A3C8C582C8CAC583CADFE9DEE780BE5B
:010986000070
:00000001FF
