:1014420044697374616E63653A00252E32662063C7
:021452006D002B
:101424007F381214737F0E1214737F011214737FAA
:0E143400061214737F0C1214737F800214735F
:0E1473008FA0C290C291D292121464C2922233
:0E1481008FA0D290C291D292121464C2922215
:1013DF008B3A8A3B893CAB3AAA3BA93C120D416040
:1013EF0013053CE53C7002053B14F9120D41FF1249
:0513FF00148180E222D0
:0E146400E4FFFE0FBF00010EBE17F8BF70F5CB
:011472002257
:10140400E4FDFCC3ED9FEC9E5015E4FBFA0BBB001E
:0F141400010ABA04F8BBFBF50DBD00010C80E422
:0114230022A6
:10145400758AF5758CFFD28C308DFDC28CC28D22BD
:08149B00758901C28DC28C228B
:0814A300D2B5121454C2B522A7
:10124C001214247F801214737BFF7A1479421213C8
:10125C00DF12149B1214A330B7FDD28C30B70330BD
:10126C008DFAC28CAF8CEFAD8AFCEC120A247B5148
:10127C007AA0799178351208008F258E248D238CD5
:10128C0022E4F58CF58AC28DFF7EFC7D057C47AB94
:10129C0025AA24A923A822120800E4FBFAF9784015
:1012AC001209098F298E288D278C26753DFF753ED6
:1012BC0014753F4C8F438E428D418C407B007A00DD
:1012CC00792A120E397FC01214737B007A00792AA6
:1012DC001213DF7F647E00121404D284D285D2866E
:1012EC00D287E4FFFDFCAB29AA28A927A82612095E
:1012FC00A6601C401AE4FFFE7DA07C41AB29AA2805
:10130C00A927A8261209A660025004C2848030E4E2
:10131C00FFFE7DA07C41AB29AA28A927A82612098B
:10132C00A6601C401AE4FFFE7D487C42AB29AA282B
:10133C00A927A8261209A660025004C285C284E41B
:10134C00FFFE7D487C42AB29AA28A927A8261209B2
:10135C00A6601E401CE4FFFE7D967C42AB29AA28A9
:10136C00A927A8261209A660025006C286C285C209
:10137C0084E4FFFE7D967C42AB29AA28A927A826E7
:10138C001209A660025003021260E4FFFE7DC87CC5
:10139C0042AB29AA28A927A8261209A640030212A3
:0C13AC0060C287C284C285C28602126043
:10080000EC4D6011E8497017ED33EC3304600DE4F2
:10081000FCFFFEFD22E933E8330470F8020A92126D
:100820000A5D58046009E4CC24815006285009026E
:100830000A9C284003020A99C0E0EB4A7044B98040
:1008400006D0E0FB020A88EF4E701CBD8008EBFF6B
:10085000EAFEE9FD80EBE98DF0A4FEE5F00208E98F
:10086000E9CDF9EAFEEBFFEF89F0A4FCE5F0CE89D3
:10087000F0A42EFFE435F0CD89F0A42DFEE435F090
:100880008067EF4E7005BD80D780C3EF8BF0A4ACBE
:10089000F0EE8BF0A42CFCE435F0F8EF8AF0A42CF9
:1008A000E5F038FCE433CB8DF0A42CFCE5F03BF80C
:1008B000EE8AF0A42CFCE5F038F8E433CF89F0A4FC
:1008C0002CFCE5F038CF3400CE89F0A42FFFE5F002
:1008D0003EFEE433C98DF0A42EFEE5F039CD8AF05A
:1008E000A42FFFE5F03EFEE43DFD33D0E0FB5007D2
:1008F0000BBB000F020A9CEC2CFCEF33FFEE33FE27
:06090000ED33FD020A7454
:10090600020A9CEC5D046005E859047003020A9231
:10091600120A5D580460F6EC4860F2EC7004FDFEC5
:10092600FF22C860DB2481C85009C39860025006C4
:10093600020A999850CAF582E9294B4A7005AB829A
:10094600020A8875F0007C1A7880C3EF9BEE9AED58
:1009560099400DC3EF9BFFEE9AFEED99FDE842F03C
:10096600DC23ACF0D0E0FFD0E0FED0E0FDAB82208F
:10097600E7101BEB60BAEC2CFCEF33FFEE33FEED19
:1009860033FD020A74E803F830E705C0F075F0009D
:10099600EF2FFFEE33FEED33FD40B830E7C280AAFD
:1009A60074F8CC6480CCC86480C8F58204604FC3F8
:1009B600EB9FF5F0EA9E42F0E99D42F0E89C45F097
:1009C600603C501DE5825FFFE582D313CB5BCBF421
:1009D6002B5582FB50280ABA002409B9002008804A
:1009E6001DE5825BFBE582D313CF5FCFF4C3132FE4
:1009F6005582FF50090EBE00050DBD00010CC3EB6C
:100A06009FF5F0EA9E42F0E99D42F0E89C45F060D1
:090A160007CC4820E701B3EC22F3
:100A1F0075F020800E75F010800575F0087D007E52
:100A2F00007F003392D530D503120D99EC3340106F
:100A3F00EF33FFEE33FEED33FDEC33FCD5F0ED225B
:0E0A4F00E5F0247EA2D513CC92E7CDCEFF2297
:100DDD00E551243DF8E6055122783A300702783D79
:100DED00E475F001120DA7020D412000EB7F2ED20C
:100DFD00008018EF540F2490D43440D4FF30040BEE
:100E0D00EF24BFB41A0050032461FFE552600215B0
:100E1D00520555E5557002055430070D783AE475C5
:100E2D00F001120DA7EF020D870213B87403D2075C
:100E3D008003E4C207F5518B3A8A3B893CE4F552B5
:100E4D00F554F555E55260077F20120E1880F575A3
:100E5D0053FFC201C200C202C203C205C206C208CC
:100E6D00120DE6FF700D3007057F00120E29AF55EC
:100E7D00AE5422B4255FC2D5C204120DE6FF24D0B4
:100E8D00B40A00501A75F00A785230D50508B6FF2D
:100E9D000106C6A426F620D5047002D20380D924FB
:100EAD00CFB41A00EF5004C2E5D204021116D201DC
:100EBD0080C6D20080C0D20280BCD2D580BAD20505
:100ECD0080B47F20120E182002077401B552004025
:100EDD00F1120DDDFF120E18020E51D208D206804E
:100EED0095120DDDFB120DDDFA120DDDF94A4B7079
:100EFD0006790D7A127BFF20022EE552602A7E00C4
:100F0D008E82758300120D5A60060EEE655370F0D9
:100F1D00C2D5EBC0E0EAC0E0E9C0E0EE121176D038
:100F2D00E0F9D0E0FAD0E0FB120D41FF60AAEBC072
:100F3D00E0EAC0E0E9C0E0120E18D0E02401F9D0DB
:100F4D00E03400FAD0E0FBE5530460DCD553D980E2
:100F5D0087D20280A212115960F7E5537001041275
:100F6D000AA7A953600DE553600914F55312120039
:100F7D00EF60F3EA30E702F404C3995077EAF42501
:100F8D00530430E701E404F553800D12115960C18B
:100F9D00EA05532553120AA7EA7850F630E701E423
:100FAD00255304D5530420050114121176E4C0E035
:100FBD001212007850E6601320E70714F6120E00A7
:100FCD00802204F6D0E014C0E07F00120E00E5533D
:100FDD006007120DF71553800B300503120DF7D076
:100FED00E0020E51D0E00480C512115960A0E55306
:100FFD0004120AA77850EAF6E553200502600104B1
:05100D0024041211761D
:1010120074FF04C0E0121200120E00E55320050214
:101022006003120DF7D0E0B553E87F45120E0A783F
:1010320050E67F2B30E7047F2DF404C0E0120E1837
:10104200D0E075F00A84C0F0120E01D0E0120E0159
:10105200020E51791080027908C206C2088008D2B5
:10106200D5790A8004790AC2D5E553047002F55392
:10107200E4FAFDFEFF120DDDFC7B08200113120DC8
:10108200DDFD7B1030000A120DDDFE120DDDFF7B4F
:1010920020EC3382D592D55013C3E43000069FFF73
:1010A200E49EFEE42001039DFDE49CFCE4CBF8C237
:1010B20001EC700CCFCECDCCE824F8F870F3801799
:1010C200C3EF33FFEE33FEED33FDEC33FCEB33FBCA
:1010D200994002FB0FD8E9EB300105F8D0E0C44893
:1010E200B201C0E00AEC4D4E4F78207B0070C2EA9C
:1010F200B5530040BCC0E0121178D0F0D0E020011E
:1011020004C4C0E0C4B201C0F0120E01D0F0D5F0A8
:10111200EB020E51120DB70EEE531055580EBF4C86
:101122000EBB4210594F1061441061490ED4431056
:1011320067550F98460FF6450F6247122D500EC3A2
:101142002D0EC72E0EEA2B0ECB230EE82012162AE6
:101152000E834800000EE2E553B4FF0375530612F6
:101162000DDDFC120DDDFD120DDDFE120DDDFF7831
:1011720049020AD6790AA2D5200314300509B9100A
:10118200020404B9080104A2D52006025001042079
:1011920002689202B552005034C0E07F2030031939
:1011A2007F30A20272067205500F1211CFC202C224
:1011B20006C205C2087F30800F300503E9C0E01285
:1011C2000E18300503D0E0F9D0E0B552CC30051747
:1011D2007F30B9100C120E187F583004077F7880C8
:1011E20003B90803120E183002057F2D020E187F74
:1011F200202008F87F2B2006F322920280CF7F0066
:10120200B4070050052449F8E6FF22286E756C6C7D
:101212002900D201120DDD3001F8C201785230D519
:101222000108F6020E832D50434958120DDD2403A6
:10123200B405004001E490122893120E09743A1288
:0A1242000E09D20375520402105584
:100A5D00E9D2E7C933E833F892D5EDD2E7CD33ECDF
:070A6D0033FC5002B2D52258
:100A7400EC30E7100FBF000C0EBE00080DBD0004E3
:100A84000BEB6014A2D5EB13FCED92E7FD2274FF8F
:100A9400FCFDFEFF22E480F8A2D574FF13FC7D80E8
:030AA400E480EFFC
:100AA700F920E72824F950037907E4F42402FB1816
:100AB700DBFDE624FB5014E9600DE4F618E604F6C6
:0F0AC700B40A08E4F6D9F57401F60A22C2D52262
:100AD600ED33EC3392D5FA602AB4FF33EDC2E77BEF
:100AE600FF60067A0A79FBE4227A0B790420D504A2
:100AF6007A0A79FF224E614E002B494E46002D4957
:100B06004E4600E47A08F608DAFC7B00740722E811
:100B1600C0E0ECC0E0EDC0E0EEC0E0EFC0E0EA759A
:100B2600F010A4CAABF075F04DA42BFBE435F0FC35
:100B3600EA2410FAEB34C5FBEC34D9FCEDC2E7FF2E
:100B460075F056A4F42411C5F0F434C58FF0A42A28
:100B5600E5F03BE43CF620E714120D01D0E0FFD0AF
:100B6600E0FED0E0FDD0E0FC1209098014F4041286
:100B76000D01D0E0FFD0E0FED0E0FDD0E0FC120891
:100B860000D0E0F8E6FAEDD2E7CD33EC332482FB71
:100B9600E4C3CF33CFCE33CECD33CD33DBF37B07B8
:100BA60075F00A846004F6081B0AE5F0F6088FF073
:100BB600740AA4FFACF08EF0740AA42CFEACF050BC
:100BC600010C8DF0740AA42CFDE435F0F608DBDE8A
:030BD6007407227F
:100BD900020A92E86480F8E933E83360110460F0AE
:100BE900ED33EC337009E8FCE9FDEAFEEBFF220482
:100BF90060DED3EB9FEA9EE99DE8C2E78CF0C2F77D
:100C090095F0400CE8CCF8E9CDF9EACEFAEBCFFB48
:100C1900120A5D85D0F05804700320D5B3E804703A
:100C2900075002B2D5020A9C92D5EC0460F7E4CCD5
:100C3900C0E0C398F8603B94186008400DD0E0FB11
:100C4900020A74E4FBFAC9FC8028E830E406E4C926
:100C5900FBE4CAFCE830E305E4C9CACBFCE8540765
:100C69006010F8C3E913F9EA13FAEB13FBEC13FC70
:100C7900D8F130F52FC3E49CFCEF9BFFEE9AFEED13
:100C890099FDD0E0FBEF4E4D4C701222DB03020AB6
:100C990099EC2CFCEF33FFEE33FEED33FDED30E73D
:100CA900EB020A74EF2BFFEE3AFEED39FDD0E0FBC3
:100CB90050130BBB0003020A9CED13FDEE13FEEF6C
:080CC90013FFEC13FC020A7496
:100CD1003F8000004120000042C80000447A00002B
:100CE100461C400047C35000497424004B189680AD
:100CF1004CBEBC205A0E1BCA6753C21C749DC5AEA4
:100D0100FB60065407601C2323120D2FEB5438603F
:100D110009120D1B120D2A120800ECF8EDF9EEFA7A
:100D2100EFCB22EB120D2A80F1543803241C900CD6
:100D3100D1FE93FC0EEE93FD0EEE930ECE93FF22A9
:0300000002148F58
:0C148F00787FE4F6D8FD75815502124C00
:100D4100BB010689828A83E0225002E722BBFE02B0
:090D5100E32289828A83E49322E3
:100D5A00BB010CE58229F582E5833AF583E022504E
:100D6A0006E92582F8E622BBFE06E92582F8E22298
:0D0D7A00E58229F582E5833AF583E49322B2
:100D8700BB010689828A83F0225002F722BBFE014B
:020D9700F32245
:0E0D9900C3E49FFFE49EFEE49DFDE49CFC226B
:100DA700FAE6FB0808E6F925F0F618E6CA3AF6224D
:100DB700D083D082F8E4937012740193700DA3A3CB
:100DC70093F8740193F5828883E4737402936860DF
:060DD700EFA3A3A380DFDF
:1013B800EFB40A07740D1213C3740A309811A89970
:1013C800B8130CC2983098FDA899C298B811F63095
:0713D80099FDC299F599226D
:00000001FF
