:10145C006368303A2025640D0A006368303A202511
:06146C002E32660D0A009D
:0D14950002240000012600043700000000C2
:0314D800D2B42269
:0B14AF00000000000000000000002210
:041472008E5F8F609A
:0E147600E4FFFE0FBF00010EBE03F8BFE8F555
:011484002245
:1012CC00E4FFFEEF25E0FFD2B41214AFA2B5E43375
:1012DC004207C2B41214AF0EBE08E8E526B40104EE
:1012EC00D2B58002C2B51214D81214AFC2B4D2B5A2
:0A12FC001214AF742F2526F8A60780
:0113060022C4
:10148500C2B51214D81214AFD2B51214AFC20E22BF
:071307007F901213DFE4FFE9
:10130E00E4FEEF30E703D38001C392B5EF25E0FF93
:10131E001214AFD2B41214AFC2B41214AF0EBE0870
:10132E00E1D2B5D2B41214AF30B502D20AC2B402B1
:02133E0014AFEA
:1013DF00D20EC20AC20C20B502D20C20B402D20C1B
:0D13EF00C2B51214AFC2B41214AF02130E37
:0B14BA00121307E4FF12130E0214854A
:0B14C5001213077F1012130E02148593
:0A13BA0012130E1214857D917F01BD
:1013C400AC07AF051213DFECD3940040088C26124F
:0B13D40012CC1C80F2E4F52602148508
:10136A00AC077F901213DF1214C57F901213DFAF00
:10137A000512130EECD39400400C742F2CF8E6FFE0
:09138A0012130E1C80EE0214BACD
:1013FC007F901213DF7F401213BA752700853028B7
:08140C00121485AE27AF28225F
:101414007F901213DF7F411213BA75290085302A99
:08142400121485AE29AF2A2243
:10142C007F901213DF7F421213BA752B0085302C7C
:08143C00121485AE2BAF2C2227
:101444007F901213DF7F431213BA752D0085302E5F
:08145400121485AE2DAF2E220B
:0C14A300758920758DFD759850D28E2241
:0814D0008F993099FDC29922A9
:061340007B007A007941F8
:061346008B5F8A608961E3
:10134C00E4FDFCAB5FAA60A9618D828C83120CE179
:0D135C00FF600A1214D00DBD00010C80E6E8
:011369002261
:10125F001214A375A8901213FC8E3B8F3C7FC87E8F
:10126F0000121472AC3BAD3CEC12090B7BA17AA0BF
:10127F0079A0783C1208008F3A8E398D388C3775EB
:10128F0062FF75631475645C853B65853C667B0006
:10129F007A007941120DC01213407562FF75631405
:1012AF00756466853A688539678538668537657BE5
:0D12BF00007A007941120DC0121340809694
:10080000EC4D6011E8497017ED33EC3304600DE4F2
:10081000FCFFFEFD22E933E8330470F80209791287
:10082000094458046009E4CC248150062850090288
:100830000983284003020980C0E0EB4A7044B98074
:1008400006D0E0FB02096FEF4E701CBD8008EBFF85
:10085000EAFEE9FD80EBE98DF0A4FEE5F00208E98F
:10086000E9CDF9EAFEEBFFEF89F0A4FCE5F0CE89D3
:10087000F0A42EFFE435F0CD89F0A42DFEE435F090
:100880008067EF4E7005BD80D780C3EF8BF0A4ACBE
:10089000F0EE8BF0A42CFCE435F0F8EF8AF0A42CF9
:1008A000E5F038FCE433CB8DF0A42CFCE5F03BF80C
:1008B000EE8AF0A42CFCE5F038F8E433CF89F0A4FC
:1008C0002CFCE5F038CF3400CE89F0A42FFFE5F002
:1008D0003EFEE433C98DF0A42EFEE5F039CD8AF05A
:1008E000A42FFFE5F03EFEE43DFD33D0E0FB5007D2
:1008F0000BBB000F020983EC2CFCEF33FFEE33FE41
:06090000ED33FD02095B6E
:1009060075F020800E75F010800575F0087D007E6C
:10091600007F003392D530D503120D20EC33401002
:10092600EF33FFEE33FEED33FDEC33FCD5F0ED2275
:0E093600E5F0247EA2D513CC92E7CDCEFF22B1
:100D6400E5762462F8E6057622785F300702786239
:100D7400E475F001120D2E020CC82000EB7F2ED278
:100D8400008018EF540F2490D43440D4FF30040B67
:100D9400EF24BFB41A0050032461FFE57760021505
:100DA40077057AE57A7002057930070D785FE47586
:100DB400F001120D2EEF020D0E0213937403D207ED
:100DC4008003E4C207F5768B5F8A608961E4F57776
:100DD400F579F57AE57760077F20120D9F80F57528
:100DE40078FFC201C200C202C203C205C206C20821
:100DF400120D6DFF700D3007057F00120DB0AF7A34
:100E0400AE7922B4255FC2D5C204120D6DFF24D081
:100E1400B40A00501A75F00A787730D50508B6FF81
:100E24000106C6A426F620D5047002D20380D92474
:100E3400CFB41A00EF5004C2E5D20402109DD201CF
:100E440080C6D20080C0D20280BCD2D580BAD2057E
:100E540080B47F20120D9F2002077401B5770040F3
:100E6400F1120D64FF120D9F020DD8D208D2068034
:100E740095120D64FB120D64FA120D64F94A4B705D
:100E84000679947A117BFF20022EE577602A7E0092
:100E94008E82758300120CE160060EEE657870F0A8
:100EA400C2D5EBC0E0EAC0E0E9C0E0EE1210FDD02C
:100EB400E0F9D0E0FAD0E0FB120CC8FF60AAEBC066
:100EC400E0EAC0E0E9C0E0120D9FD0E02401F9D0CF
:100ED400E03400FAD0E0FBE5780460DCD578D98012
:100EE40087D20280A21210E060F7E5787001041244
:100EF400098EA978600DE578600914F578121187D8
:100F0400EF60F3EA30E702F404C3995077EAF4257A
:100F1400780430E701E404F578800D1210E060C134
:100F2400EA0578257812098EEA7875F630E701E447
:100F3400257804D57804200501141210FDE4C0E0DE
:100F44001211877875E6601320E70714F6120D87EF
:100F5400802204F6D0E014C0E07F00120D87E5780B
:100F64006007120D7E1578800B300503120D7ED0BC
:100F7400E0020DD8D0E00480C51210E060A0E5784E
:100F84000412098E7875EAF6E578200502600104FA
:050F940024041210FD11
:100F990074FF04C0E0121187120D87E5782005025D
:100FA9006003120D7ED0E0B578E87F45120D917887
:100FB90075E67F2B30E7047F2DF404C0E0120D9F06
:100FC900D0E075F00A84C0F0120D88D0E0120D88C7
:100FD900020DD8791080027908C206C2088008D2A9
:100FE900D5790A8004790AC2D5E578047002F578C2
:100FF900E4FAFDFEFF120D64FC7B08200113120DBB
:1010090064FD7B1030000A120D64FE120D64FF7B33
:1010190020EC3382D592D55013C3E43000069FFFEC
:10102900E49EFEE42001039DFDE49CFCE4CBF8C2B0
:1010390001EC700CCFCECDCCE824F8F870F3801712
:10104900C3EF33FFEE33FEED33FDEC33FCEB33FB43
:10105900994002FB0FD8E9EB300105F8D0E0C4480C
:10106900B201C0E00AEC4D4E4F78207B0070C2EA15
:10107900B5780040BCC0E01210FFD0F0D0E02001EC
:1010890004C4C0E0C4B201C0F0120D88D0F0D5F09C
:10109900EB020DD8120D3E0E75530FDC580E464C5F
:1010A9000E42420FE04F0FE8440FE8490E5B430F31
:1010B900EE550F1F460F7D450EE94711B4500E4AF4
:1010C9002D0E4E2E0E712B0E52230E6F20119D2ABE
:1010D9000E0A4800000E69E578B4FF037578061218
:1010E9000D64FC120D64FD120D64FE120D64FF788F
:1010F9006E0209BD790AA2D5200314300509B91079
:10110900020404B9080104A2D520060250010420F2
:1011190002689202B577005034C0E07F203003198D
:101129007F30A20272067205500F121156C202C216
:1011390006C205C2087F30800F300503E9C0E012FE
:101149000D9F300503D0E0F9D0E0B577CC30051715
:101159007F30B9100C120D9F7F583004077F7880BB
:1011690003B90803120D9F3002057F2D020D9F7FE1
:10117900202008F87F2B2006F322920280CF7F00DF
:10118900B407005005246EF8E6FF22286E756C6CD2
:101199002900D201120D643001F8C201787730D5E7
:1011A9000108F6020E0A2D50434958120D64240312
:1011B900B405004001E49011AF93120D90743A12F6
:0A11C9000D90D203757704020FDCCD
:10094400E9D2E7C933E833F892D5EDD2E7CD33ECF9
:0709540033FC5002B2D52272
:10095B00EC30E7100FBF000C0EBE00080DBD0004FD
:10096B000BEB6014A2D5EB13FCED92E7FD2274FFA9
:10097B00FCFDFEFF22E480F8A2D574FF13FC7D8002
:03098B00E480EF16
:10098E00F920E72824F950037907E4F42402FB1830
:10099E00DBFDE624FB5014E9600DE4F618E604F6E0
:0F09AE00B40A08E4F6D9F57401F60A22C2D5227C
:1009BD00ED33EC3392D5FA602AB4FF33EDC2E77B09
:1009CD00FF60067A0979E2E4227A0979EB20D504F1
:1009DD007A0979E6224E614E002B494E46002D498B
:1009ED004E4600E47A08F608DAFC7B00740722E82C
:1009FD00C0E0ECC0E0EDC0E0EEC0E0EFC0E0EA75B5
:100A0D00F010A4CAABF075F04DA42BFBE435F0FC4F
:100A1D00EA2410FAEB34C5FBEC34D9FCEDC2E7FF48
:100A2D0075F056A4F42411C5F0F434C58FF0A42A42
:100A3D00E5F03BE43CF620E714120C88D0E0FFD043
:100A4D00E0FED0E0FDD0E0FC120BBB8014F40412EC
:100A5D000C88D0E0FFD0E0FED0E0FDD0E0FC120825
:100A6D0000D0E0F8E6FAEDD2E7CD33EC332482FB8B
:100A7D00E4C3CF33CFCE33CECD33CD33DBF37B07D2
:100A8D0075F00A846004F6081B0AE5F0F6088FF08D
:100A9D00740AA4FFACF08EF0740AA42CFEACF050D6
:100AAD00010C8DF0740AA42CFDE435F0F608DBDEA4
:030ABD0074072299
:100AC000020979E86480F8E933E83360110460F0E2
:100AD000ED33EC337009E8FCE9FDEAFEEBFF22049C
:100AE00060DED3EB9FEA9EE99DE8C2E78CF0C2F797
:100AF00095F0400CE8CCF8E9CDF9EACEFAEBCFFB63
:100B000012094485D0F05804700320D5B3E804706E
:100B1000075002B2D502098392D5EC0460F7E4CC09
:100B2000C0E0C398F8603B94186008400DD0E0FB2B
:100B300002095BE4FBFAC9FC8028E830E406E4C95A
:100B4000FBE4CAFCE830E305E4C9CACBFCE854077F
:100B50006010F8C3E913F9EA13FAEB13FBEC13FC8A
:100B6000D8F130F52FC3E49CFCEF9BFFEE9AFEED2D
:100B700099FDD0E0FBEF4E4D4C701222DB030209D1
:100B800080EC2CFCEF33FFEE33FEED33FDED30E770
:100B9000EB02095BEF2BFFEE3AFEED39FDD0E0FBF7
:100BA00050130BBB0003020983ED13FDEE13FEEFA0
:080BB00013FFEC13FC02095BCA
:100BB800020983EC5D046005E859047003020979B1
:100BC800120944580460F6EC4860F2EC7004FDFE2B
:100BD800FF22C860DB2481C85009C3986002500610
:100BE8000209809850CAF582E9294B4A7005AB8200
:100BF80002096F75F0007C1A7880C3EF9BEE9AEDBE
:100C080099400DC3EF9BFFEE9AFEED99FDE842F087
:100C1800DC23ACF0D0E0FFD0E0FED0E0FDAB8220DA
:100C2800E7101BEB60BAEC2CFCEF33FFEE33FEED64
:100C380033FD02095BE803F830E705C0F075F00002
:100C4800EF2FFFEE33FEED33FD40B830E7C280AA48
:100C58003F8000004120000042C80000447A0000A4
:100C6800461C400047C35000497424004B18968026
:100C78004CBEBC205A0E1BCA6753C21C749DC5AE1D
:100C8800FB60065407601C2323120CB6EB54386033
:100C980009120CA2120CB1120800ECF8EDF9EEFAE8
:100CA800EFCB22EB120CB180F1543803241C900CCA
:100CB80058FE93FC0EEE93FD0EEE930ECE93FF229C
:030000000211D317
:0C11D300787FE4F6D8FD75817A02121ACC
:100CC800BB010689828A83E0225002E722BBFE022A
:090CD800E32289828A83E493225D
:100CE100BB010CE58229F582E5833AF583E02250C8
:100CF10006E92582F8E622BBFE06E92582F8E22212
:0D0D0100E58229F582E5833AF583E493222B
:100D0E00BB010689828A83F0225002F722BBFE01C4
:020D1E00F322BE
:0E0D2000C3E49FFFE49EFEE49DFDE49CFC22E4
:100D2E00FAE6FB0808E6F925F0F618E6CA3AF622C6
:100D3E00D083D082F8E4937012740193700DA3A344
:100D4E0093F8740193F5828883E473740293686058
:060D5E00EFA3A3A380DF58
:10139300EFB40A07740D12139E740A309811A899BA
:1013A300B8130CC2983098FDA899C298B811F630BA
:0713B30099FDC299F5992292
:1011DF0002125FE493A3F8E493A34003F68001F2B5
:1011EF0008DFF48029E493A3F85407240CC8C33311
:1011FF00C4540F4420C8834004F456800146F6DFE0
:10120F00E4800B0102040810204080901495E47EC6
:10121F00019360BCA3FF543F30E509541FFEE493D4
:10122F00A360010ECF54C025E060A840B8E493A39B
:10123F00FAE493A3F8E493A3C8C582C8CAC583CAC6
:10124F00F0A3C8C582C8CAC583CADFE9DEE780BE7E
:0114A2000049
:00000001FF
