:10098000021A0000021400000A083F065B4F666D61
:040990007D077F6FF1
:10093B00C291D29074082513F8E6F5A07F0A7E00C9
:0F094B0012095AD291C29074082517F8E6F5A048
:10095A00E4FDFCC3ED9FEE6480F8EC6480985015CA
:10096A00E4FBFA0BBB00010AEB64704A70F50DBD9B
:05097A0000010C80DE0D
:01097F002255
:03000B0002099552
:10099500C0E0758CFC758A66051BE51B7002051A9F
:0309A500D0E0326D
:1009A800438901758CFC758A66D2A9D2AFD28C2294
:10080000751D00751E01E51E6401451D704C120921
:10081000A8C3E51B9515FFE51A9514FEC3EF946474
:10082000EE94004026851A14851B15E51C9464502F
:100830001AE51C75F00A84751200F513E51C75F0B5
:100840000A84AFF07516008F17051C12093BE51CD2
:10085000B463B3E4F51DF51E80ACE51E451D704E76
:100860001209A8C3E51B9515FFE51A9514FEC3EF01
:100870009464EE94004027851A14851B15E51CD35B
:100880009400401AE51C75F00A84751200F513E512
:100890001C75F00A84AFF07516008F17151C12092D
:0E08A0003BE51CB401B4751D00751E0180AC53
:0108AE002227
:030000000208AF44
:0C08AF00787FE4F6D8FD75811E0208F683
:1008BB00020800E493A3F8E493A34003F68001F24B
:1008CB0008DFF48029E493A3F85407240CC8C3333E
:1008DB00C4540F4420C8834004F456800146F6DF0D
:1008EB00E4800B0102040810204080900980E47E14
:1008FB00019360BCA3FF543F30E509541FFEE49302
:10090B00A360010ECF54C025E060A840B8E493A3C8
:10091B00FAE493A3F8E493A3C8C582C8CAC583CAF3
:10092B00F0A3C8C582C8CAC583CADFE9DEE780BEAB
:010994000062
:00000001FF
