:0A0DA100496E743A202564000A0030
:040DB3000208000131
:0C0D9500758920758DFD759850D28E2256
:080DAB008F993099FDC29922D5
:040D1A007F147E00C4
:100D1E00E4FDFCC3ED9FEE6480F8EC648098501502
:100D2E00E4FBFA0BBB00010AEB64704A70F50DBDD3
:050D3E0000010C80DE45
:010D4300228D
:060D44007B007A00790A31
:060D4A008B228A2389249C
:100D5000E4FDFCAB22AA23A9248D828C83120C0013
:0D0D6000FF600A120DAB0DBD00010C80E616
:010D6D002263
:100B5C00120D95209339120D1A2093330509E509CE
:100B6C00700205087525FF75260D7527A1850828C7
:100B7C00F5297B007A00790A12085C120D447BFF80
:100B8C007A0D79A9120D4A209305120D1A80F820BE
:100B9C00943A120D1A209434E509150970021508BF
:100BAC007525FF75260D7527A18508288509297BD4
:100BBC00007A00790A12085C120D447BFF7A0D79D9
:100BCC00A9120D4A209405120D1A80F8C295C296EE
:100BDC00C3E5099406E508648094804004D29580AE
:100BEC0002C295C3E508648094805003020B5FD267
:040BFC0096020B5FF3
:03000000020C8E61
:0C0C8E00787FE4F6D8FD758135020CD5A6
:100C0000BB010CE58229F582E5833AF583E02250A9
:100C100006E92582F8E622BBFE06E92582F8E222F3
:0D0C2000E58229F582E5833AF583E493220D
:10080000E5312425F8E605312278223007027825E3
:10081000E475F001120C58020C2D2000EB7F2ED253
:10082000008018EF540F2490D43440D4FF30040BD0
:10083000EF24BFB41A0050032461FFE532600215B3
:10084000320535E5357002053430070D7822E47540
:10085000F001120C58EF020C46020D6E7403D20721
:100860008003E4C207F5318B228A238924E4F53220
:10087000F534F535E53260077F2012083B80F575C9
:1008800033FFC201C200C202C203C205C206C208CF
:10089000120809FF700D3007057F0012084CAF35B4
:1008A000AE3422B4255FC2D5C204120809FF24D099
:1008B000B40A00501A75F00A783230D50508B6FF30
:1008C0000106C6A426F620D5047002D20380D924DE
:1008D000CFB41A00EF5004C2E5D204020A4CD20190
:1008E00080C6D20080C0D20280BCD2D580BAD205E8
:1008F00080B47F2012083B2002077401B53200400B
:10090000F1120800FF12083B020874D208D20680D8
:1009100095120800FB120800FA120800F94A4B7001
:1009200006791D7A0B7BFF20022EE532602A7E00BD
:100930008E82758300120C0060060EEE653370F037
:10094000C2D5EBC0E0EAC0E0E9C0E0EE120A93D005
:10095000E0F9D0E0FAD0E0FB120C2DFF60AAEBC06A
:10096000E0EAC0E0E9C0E012083BD0E02401F9D0A1
:10097000E03400FAD0E0FBE5330460DCD533D98005
:10098000877BFF7A0A798FD202809C791080027966
:1009900008C206C2088008D2D5790A8004790AC242
:1009A000D5E533047002F533E4FAFDFEFF120800CA
:1009B000FC7B08200113120800FD7B1030000A1296
:1009C0000800FE120800FF7B20EC3382D592D55040
:1009D00013C3E43000069FFFE49EFEE42001039D64
:1009E000FDE49CFCE4CBF8C201EC700CCFCECDCC86
:1009F000E824F8F870F38017C3EF33FFEE33FEED11
:100A000033FDEC33FCEB33FB994002FB0FD8E9EBF1
:100A1000300105F8D0E0C448B201C0E00AEC4D4E08
:100A20004F78207B0070C2EAB5330040BCC0E012B2
:100A30000A95D0F0D0E0200104C4C0E0C4B201C0E7
:100A4000F0120824D0F0D5F0EB020874120C6809FB
:100A50001153098B5808E24C08DE42098F4F099761
:0F0A60004409974908F743099D550981460981C3
:100A6F00450981470B3D5008E62D08EA2E090D2B4D
:100A7F0008EE23090B200B262A08A64800000905BB
:100A8F003F3F3F00790AA2D5200314300509B91062
:100A9F00020404B9080104A2D52006025001042063
:100AAF0002689202B532005034C0E07F2030031943
:100ABF007F30A20272067205500F120AECC202C2F8
:100ACF0006C205C2087F30800F300503E9C0E0126F
:100ADF00083B300503D0E0F9D0E0B532CC30051734
:100AEF007F30B9100C12083B7F583004077F788095
:100AFF0003B9080312083B3002057F2D02083B7F24
:100B0F00202008F87F2B2006F322920280CF286E38
:100B1F00756C6C2900D2011208003001F8C20178FF
:100B2F003230D50108F60208A62D50434958120855
:100B3F00002403B405004001E4900B389312082CF5
:0D0B4F00743A12082CD20375320402098B8F
:100C9A00020B5CE493A3F8E493A34003F68001F209
:100CAA0008DFF48029E493A3F85407240CC8C3335B
:100CBA00C4540F4420C8834004F456800146F6DF2A
:100CCA00E4800B0102040810204080900DB3E47EFA
:100CDA00019360BCA3FF543F30E509541FFEE4931F
:100CEA00A360010ECF54C025E060A840B8E493A3E6
:100CFA00FAE493A3F8E493A3C8C582C8CAC583CA11
:100D0A00F0A3C8C582C8CAC583CADFE9DEE780BEC8
:010DB700003B
:100C2D00BB010689828A83E0225002E722BBFE02C5
:090C3D00E32289828A83E49322F8
:100C4600BB010689828A83F0225002F722BBFE018D
:020C5600F32287
:100C5800FAE6FB0808E6F925F0F618E6CA3AF6229D
:100C6800D083D082F8E4937012740193700DA3A31B
:100C780093F8740193F5828883E47374029368602F
:060C8800EFA3A3A380DF2F
:100D6E00EFB40A07740D120D79740A309811A89910
:100D7E00B8130CC2983098FDA899C298B811F630E5
:070D8E0099FDC299F59922BD
:00000001FF
