:0A0D4000496E743A202564000A0091
:040D52000208000192
:0C0D3400758920758DFD759850D28E22B7
:080D4A008F993099FDC2992236
:100CEA00E4FDFCC3ED9FEE6480F8EC648098501537
:100CFA00E4FBFA0BBB00010AEB64704A70F50DBD08
:050D0A0000010C80DE79
:010D0F0022C1
:060D10008B228A238924D6
:100D1600E4FDFCAB22AA23A9248D828C83120B5CF2
:0D0D2600FF600A120D4A0DBD00010C80E6B1
:010D3300229D
:100C7600120D342093FD7F147E00120CEA2093F3AC
:100C86000509E509700205087525FF75260D752706
:100C960040850828F5297B007A00790A12085C7BD2
:100CA600007A00790A120D107BFF7A0D7948120D31
:0D0CB600102093BF7F147E00120CEA80F422
:03000000020BEA06
:0C0BEA00787FE4F6D8FD758135020C31EF
:100B5C00BB010CE58229F582E5833AF583E022504E
:100B6C0006E92582F8E622BBFE06E92582F8E22298
:0D0B7C00E58229F582E5833AF583E49322B2
:10080000E5312425F8E605312278223007027825E3
:10081000E475F001120BB4020B892000EB7F2ED29D
:10082000008018EF540F2490D43440D4FF30040BD0
:10083000EF24BFB41A0050032461FFE532600215B3
:10084000320535E5357002053430070D7822E47540
:10085000F001120BB4EF020BA2020CC37403D20717
:100860008003E4C207F5318B228A238924E4F53220
:10087000F534F535E53260077F2012083B80F575C9
:1008800033FFC201C200C202C203C205C206C208CF
:10089000120809FF700D3007057F0012084CAF35B4
:1008A000AE3422B4255FC2D5C204120809FF24D099
:1008B000B40A00501A75F00A783230D50508B6FF30
:1008C0000106C6A426F620D5047002D20380D924DE
:1008D000CFB41A00EF5004C2E5D204020A4CD20190
:1008E00080C6D20080C0D20280BCD2D580BAD205E8
:1008F00080B47F2012083B2002077401B53200400B
:10090000F1120800FF12083B020874D208D20680D8
:1009100095120800FB120800FA120800F94A4B7001
:1009200006791D7A0B7BFF20022EE532602A7E00BD
:100930008E82758300120B5C60060EEE653370F0DC
:10094000C2D5EBC0E0EAC0E0E9C0E0EE120A93D005
:10095000E0F9D0E0FAD0E0FB120B89FF60AAEBC00F
:10096000E0EAC0E0E9C0E012083BD0E02401F9D0A1
:10097000E03400FAD0E0FBE5330460DCD533D98005
:10098000877BFF7A0A798FD202809C791080027966
:1009900008C206C2088008D2D5790A8004790AC242
:1009A000D5E533047002F533E4FAFDFEFF120800CA
:1009B000FC7B08200113120800FD7B1030000A1296
:1009C0000800FE120800FF7B20EC3382D592D55040
:1009D00013C3E43000069FFFE49EFEE42001039D64
:1009E000FDE49CFCE4CBF8C201EC700CCFCECDCC86
:1009F000E824F8F870F38017C3EF33FFEE33FEED11
:100A000033FDEC33FCEB33FB994002FB0FD8E9EBF1
:100A1000300105F8D0E0C448B201C0E00AEC4D4E08
:100A20004F78207B0070C2EAB5330040BCC0E012B2
:100A30000A95D0F0D0E0200104C4C0E0C4B201C0E7
:100A4000F0120824D0F0D5F0EB020874120BC409A0
:100A50001153098B5808E24C08DE42098F4F099761
:0F0A60004409974908F743099D550981460981C3
:100A6F00450981470B3D5008E62D08EA2E090D2B4D
:100A7F0008EE23090B200B262A08A64800000905BB
:100A8F003F3F3F00790AA2D5200314300509B91062
:100A9F00020404B9080104A2D52006025001042063
:100AAF0002689202B532005034C0E07F2030031943
:100ABF007F30A20272067205500F120AECC202C2F8
:100ACF0006C205C2087F30800F300503E9C0E0126F
:100ADF00083B300503D0E0F9D0E0B532CC30051734
:100AEF007F30B9100C12083B7F583004077F788095
:100AFF0003B9080312083B3002057F2D02083B7F24
:100B0F00202008F87F2B2006F322920280CF286E38
:100B1F00756C6C2900D2011208003001F8C20178FF
:100B2F003230D50108F60208A62D50434958120855
:100B3F00002403B405004001E4900B389312082CF5
:0D0B4F00743A12082CD20375320402098B8F
:100BF600020C76E493A3F8E493A34003F68001F293
:100C060008DFF48029E493A3F85407240CC8C333FF
:100C1600C4540F4420C8834004F456800146F6DFCE
:100C2600E4800B0102040810204080900D52E47EFF
:100C3600019360BCA3FF543F30E509541FFEE493C3
:100C4600A360010ECF54C025E060A840B8E493A38A
:100C5600FAE493A3F8E493A3C8C582C8CAC583CAB5
:100C6600F0A3C8C582C8CAC583CADFE9DEE780BE6D
:010D5600009C
:100B8900BB010689828A83E0225002E722BBFE026A
:090B9900E32289828A83E493229D
:100BA200BB010689828A83F0225002F722BBFE0132
:020BB200F3222C
:100BB400FAE6FB0808E6F925F0F618E6CA3AF62242
:100BC400D083D082F8E4937012740193700DA3A3C0
:100BD40093F8740193F5828883E4737402936860D4
:060BE400EFA3A3A380DFD4
:100CC300EFB40A07740D120CCE740A309811A89968
:100CD300B8130CC2983098FDA899C298B811F63091
:070CE30099FDC299F5992269
:00000001FF
